:020000040800F2
:10000000501F012039020008DD290008451E0008A4
:10001000DB2900089D0800082544000800000000B6
:10002000000000000000000000000000633B00082A
:100030001D090008000000007B3300087D3C00081B
:10004000530200085302000853020008530200083C
:10005000530200085302000853020008530200082C
:10006000530200085302000853020008530200081C
:10007000530200085302000853020008530200080C
:1000800053020008530200085302000853020008FC
:1000900053020008530200085302000853020008EC
:1000A00053020008530200085302000853020008DC
:1000B000713D00087D3D000853020008530200080E
:1000C00053020008530200085302000853020008BC
:1000D0005302000853020008B94300085302000805
:1000E0001F090008530200085302000853020008C9
:1000F000530200085302000853020008530200088C
:10010000530200085302000853020008530200087B
:10011000530200085302000853020008530200086B
:10012000530200085302000853020008530200085B
:10013000530200085302000853020008530200084B
:10014000530200085302000853020008530200083B
:10015000530200085302000853020008530200082B
:10016000530200085302000853020008530200081B
:1001700053020008530200080000000000000000C5
:10018000530200085302000800F002F800F044F89F
:100190000AA090E8000C82448344AAF10107DA45E2
:1001A00001D100F039F8AFF2090EBAE80F0013F0F0
:1001B000010F18BFFB1A43F0010318474C37010029
:1001C0006C370100103A24BF78C878C1FAD85207BA
:1001D00024BF30C830C144BF04680C6070470000C1
:1001E0000023002400250026103A28BF78C1FBD840
:1001F000520728BF30C148BF0B607047642900F028
:100200003181732900F0F781002070471FB505F098
:1002100045F81FBD10B510BD00F008FA1146FFF7F4
:10022000F5FF04F055FA00F026FA03B4FFF7F2FFE9
:1002300003BC04F013F9000009488047094800474F
:10024000FEE7FEE7FEE7FEE7FEE7FEE7FEE7FEE786
:10025000FEE7FEE704480549054A064B70470000E3
:10026000F13C00088901000850190120501F0120AD
:10027000501B0120501B0120704753EA020C00F074
:1002800069802DE9F04B4FF00006002B1FBFB3FA39
:1002900083F503FA05F424FA05F65E4012BF16430F
:1002A000B2FA82F502FA05F4C5F120051EBF22FA62
:1002B00005FC44EA0C04203556EA044C4FEA144489
:1002C00018BF641C4FF000084FF00009904271EB1A
:1002D000030C39D3002919BFB1FA81F701FA07F6E7
:1002E000B0FA80F700FA07F6C7F120071EBF20FA20
:1002F00007FC46EA0C062037B6FBF4FCA7EB050723
:10030000103F07F01F0BCBF120060CFA0BFB2CFA69
:1003100006F644BFB3460026202FA4BF5E464FF02A
:10032000000B5BEA060C08BF4FF0010B19EB0B0941
:10033000ABFB027C48EB0608C01B06FB02CC0BFBA8
:1003400003CC71EB0C01C1E70B460246414648461F
:10035000BDE8F08B13B54FF000004FF00001AFF394
:100360000080BDE81C4070470FB4044910B503AAD3
:10037000029800F045F910BC5DF814FB1000002055
:100380000FB41CB5074B06AA7B446946009005983C
:1003900000F007F90020694600F016F91CBC5DF872
:1003A00014FB00003D0200002DE9F0410E4604461A
:1003B000002020622046E168884730B3252805D018
:1003C000D4E901219047206A401CF2E7E168204609
:1003D00000278847050018D0A5F14100192802D848
:1003E00020354FF400673246294620462760FFF744
:1003F00005FF40B1012804D0F61D26F00706083697
:10040000D8E7361DD6E72846DAE7206ABDE8F0814E
:1004100070B50C460546012A05D02878800600D51F
:10042000EA69002302E0012305E05B1C934202D24B
:10043000E05C0028F9D1A869E618C01AA861286A0A
:10044000184428622846AFF3008004E0D5E9012172
:1004500014F8010B9047B442F8D32846AFF300805C
:1004600070BD00002DE9F041064600241068752992
:10047000314616A510D0AFF30080002802DA4042C2
:1004800013A507E031688A0701D512A502E04907E4
:1004900004D511A5012401E0AFF3008000210A2258
:1004A00006F1240709E0B0FBF2FCB0FBF2F302FB1B
:1004B0001C00303078541846491C0028F3D12346DC
:1004C0002A463046BDE8F04100F00CB800000000BC
:1004D0002D0000002B000000200000007047704736
:1004E000704770472DE9F0470D46994692460446FD
:1004F00000F124080168880604D5E06921F01001A4
:10050000216000E00120A84201DD471B00E0002738
:10051000A1697A1902EB0900081AA0612078C006C7
:1005200002D42046AFF30080002608E0D4E9012180
:100530001AF806009047206A401C761C20624E453F
:10054000F4DB2078C0060AD52046AFF3008006E031
:10055000D4E9012130209047206A401C2062381ED7
:10056000A7F10107F4DC07E0D4E9012118F8050040
:100570009047206A401C2062281EA5F10105F3DC8B
:100580002046AFF300802078000602D50220BDE8A7
:10059000F0870120FBE7000001694A1C026108782E
:1005A000704700B58FB0CDE90131002105910549B3
:1005B0007944CDE9031011466846FFF7F5FE0FB008
:1005C00000BD0000E5FFFFFF0A6802F8010B0A60AA
:1005D000704710B5436913B1AFF3008001E0FFF736
:1005E00017FF012010BD127800F124010A700022CB
:1005F0004A700122EDE711684FF0FF32E9E7000091
:10060000074B70B50D467B44FFF7CBFF04462846E9
:1006100000F008F810B14FF0FF3070BD204670BDFB
:10062000BB3E0000007B00F080007047754600F084
:100630002BF8AE4605006946534620F00700854674
:1006400018B020B5FFF706FEBDE820404FF00006C9
:100650004FF000074FF000084FF0000B21F00701AA
:10066000AC46ACE8C009ACE8C009ACE8C009ACE8ED
:10067000C0098D46704710B50446AFF30080204690
:10068000BDE81040FFF7D1BD00487047F0180120C9
:1006900038B50024009401F003FC02226946A8202A
:1006A00000F0B6F878B94FF49675284603F0E2FEEC
:1006B00008208DF800008DF8014002226946E120F3
:1006C00000F0A6F808B1012038BD284603F0D2FE9C
:1006D000002038BD2DE9F0410E46054601F0BEFC74
:1006E000712001F07FFC01F015FD20B101F0E4FC68
:1006F0000120BDE8F0810024771E09E0BC4201D151
:10070000002000E0012001F031FC2855641CE4B217
:10071000B442F3D301F0D0FC0020EAE70EB500208C
:100720000290022202A9AC2000F072F820B9062142
:100730006846FFF7CFFF10B1B7EE000A0EBD9DF877
:1007400001009DF80210000340EA01109DF803101B
:1007500001F0F001084304F0A5FB9FED081B53ECEA
:10076000112B04F0B3FB9FED071B53EC112B04F08E
:10077000ADFB04F0BDFA00EE100A0EBD0000000053
:1007800000005940000000000000B03E0EB50020FF
:100790000290022202A9AC2000F03AF820B906210A
:1007A0006846FFF797FF10B1B7EE000A0EBD9DF83F
:1007B00003009DF804100007000B40EA01209DF89B
:1007C0000510084304F06EFB9FED0B1B53EC112B3F
:1007D00004F07CFB9FED0A1B53EC112B04F076FB1D
:1007E0009FED091B53EC112B04F06EFC04F080FA12
:1007F00000EE100A0EBD000000000000000069407D
:10080000000000000000B03E000000000000494071
:1008100070B515460E46044601F020FC702001F02C
:10082000E1FB01F077FC18B101F046FC012070BD3E
:10083000204601F0D7FB01F06DFC002406E0305D9E
:1008400001F0D0FB01F066FC641CE4B2AC42F6D3CC
:1008500001F032FC002070BD0E4810B5C16C86B0AE
:1008600041F00201C164C06C0B4C00F00200059025
:10087000042000900120019002200290039069461C
:10088000204600F0B5F800220421204600F0A2F92D
:1008900006B010BD0010024000040048FEE72DE93C
:1008A000F0410E46074615460421052000F02AF8BF
:1008B0000021012003F0B8FD80210A2003F052F945
:1008C000002405E0395D092003F0AEFD641CE4B2AC
:1008D000B442F7D30321012003F0A6FDFF24052035
:1008E00002F004FE641E14F0FF0401D04007F6D5A8
:1008F000222002F0FBFD2870212002F0F7FD687035
:10090000BDE8F08170B50C46054602F0EFFD20EA27
:1009100004012846BDE8704003F086BD70474FF4DF
:10092000006000F057B810B590F825100024022997
:1009300003D00421C16301241AE001680A6822F08F
:100940000E020A6001680A6822F001020A6090F84B
:100950004410012301F01C0203FA02F1026C516001
:1009600080F82530002180F82410816B01B1884780
:10097000204610BD2DE9F0410446642003F07AFDC5
:10098000B4F5006F20D1114C11484FF480652278E6
:10099000002A4FF0000204D02946BDE8F04100F0E3
:1009A00019B94FF400763146074600F013F90122D9
:1009B0003146384600F00EF901222946384600F04B
:1009C00009F92078401C2070BDE8F0811800002053
:1009D0000004004870B5054D04462868204203D045
:1009E0002046FFF7C7FF2C6070BD000014040140D3
:1009F0002DE9F84FDFF8A091002209F1040A0AF16D
:100A0000040B4FF00F080BF1040EBEE001249440DC
:100A1000234075D04D68022D01D0122D11D1D5087B
:100A200000EB85073E6A5507ED0E08FA05FC26EA3D
:100A30000C06D1F810C00CFA05FC4CEA060CC7F8FD
:100A400020C007685500032691F804C0AE400CF0A2
:100A5000030CB7430CFA05FC4CEA070CC0F800C0C5
:100A60004F68012F05D0022F03D0112F01D0122F74
:100A700015D18768D1F80CC0B7430CFA05FC4CEAD5
:100A8000070CC0F808C0476891F804C0A743CCF32E
:100A9000001C0CFA02FC4CEA070CC0F804C0D1F8A8
:100AA00004C06FEA0C07BF0706D1C76AA743CCF39F
:100AB000C00494403C43C462C468B4438E68AE40F2
:100AC0002643C6604C68E4005ED5344C256E45F084
:100AD00001052566246E22F0030504F0010400944C
:100AE0002F4C2E19B7689407250F08FA05F4A74371
:100AF000B0F1904F05D02B4CA04204D101241CE052
:100B000042E0002419E0284CA04201D1022414E064
:100B1000264CA04201D103240FE0254CA04201D174
:100B200004240AE0234CA04201D1052405E0224C14
:100B3000A04201D1062400E00724AC403C43B4604D
:100B4000D9F800404D464E689C43F60300D51C433F
:100B50002C60DAF8004055464E689C43B60300D539
:100B60001C432C60DBF800405D464E689C43F60257
:100B700000D51C432C60DEF8004075464E689C434F
:100B8000B60200D51C432C60521C0B6833FA02F4E9
:100B90007FF43CAF00F012B80004014000100240A6
:100BA000000001400004004800080048000C004814
:100BB00000100048001400480018004818BCBDE8A8
:100BC000E08F0069084000D00120704742694A4028
:100BD000426170470AB181617047816270470000CD
:100BE00001480068704700000400002002480168C6
:100BF000491C0160704700000400002010B500246B
:100C0000052000F04FF8002000F008F808B101249A
:100C100001E000F01BF8204610BD000070B505464D
:100C200009484FF47A7100240068B0FBF1F000F03D
:100C300009FD08B1012404E000222946501E00F0FD
:100C400011F8204670BD000000000020704700F041
:100C50001F02012191404009800000F1E020C0F80E
:100C600000117047F0B40E4B1B68C3F30223C3F1AD
:100C70000704042C00D904241D1D072D01D20023D4
:100C800000E0DB1E012606FA04F56D1E0D409D40B6
:100C90009E40761E164045EA0601F0BC01F09FBE5C
:100CA0000CED00E0064A00F0070110684FF6FF0364
:100CB000184040EA012003490843106070470000D3
:100CC0000CED00E00000FA051649B0F5007F086859
:100CD000C0F3412009D0022805D0086820F4C06084
:100CE00040F480600860002070470128FBD008684D
:100CF00020F4C06040F4007008600B4832220068A5
:100D000050430A4AB0FBF2F0401C00E0401E4A6922
:100D1000520501D50028F9D148694005E3D50320E3
:100D200070470000007000400000002040420F00AB
:100D30000248006800F4C060704700000070004086
:100D40002DE9F0470D4604005ED0DFF80881D8F8A1
:100D5000000000F00700A8420CD2D8F8001021F0E3
:100D600007012943C8F80010D8F8000000F0070078
:100D7000A84249D12078384EC0072BD0606803289C
:100D800011D0022812D0316898B1490500293BDA08
:100D9000B16821F003010143B160FFF721FF07466D
:100DA00041F288390FE031688901EFE73168890342
:100DB000ECE78907EAE7FFF713FFC11B494502D9B2
:100DC0000320BDE8F087B068616800F00C00B0EB6C
:100DD000810FF0D12078800705D5B068A16820F098
:100DE000F0000843B060D8F80010404601F0070159
:100DF000A9420BD9016821F007012943016000686D
:100E000000F00700A84201D00120DAE7207840076F
:100E100005D5B068E16820F4E0600843B060207850
:100E2000000706D5B068216920F4605040EAC1008F
:100E3000B06000F03BF8B168084AC1F30311515C9F
:100E400001F01F01C84006490860BDE8F0470020D6
:100E5000FFF7E4BE0020024000100240B05200083C
:100E6000000000200548064900688968054AC1F36A
:100E70000221515C01F01F01C840704700000020B2
:100E800000100240F05200080548064900688968D1
:100E9000054AC1F3C221515C01F01F01C8407047EF
:100EA0000000002000100240F052000870B5264BF0
:100EB000002210469968DC6811F00C0104F003066A
:100EC000224C4FEA640508D00C2904D0042925D00F
:100ED000082925D010E0012E10D11A68120704D479
:100EE000D3F89420C2F3032202E01A68C2F303127B
:100EF000174E56F8222079B10C290ED1D86800F08F
:100F00000301D868C0F30210401C02290AD003294B
:100F10000BD0B2FBF0F00AE0104670BD204670BD69
:100F2000284670BDB4FBF0F001E0B5FBF0F0D968E5
:100F3000C1F306214843D968C1F34161491C490006
:100F4000B0FBF1F070BD0000001002400024F4007E
:100F5000C05200082DE9F84304007CD0FA4DA8687F
:100F600000F00C06E86800F003072078C00662D5A0
:100F700076B10C2E01D1012F0AD0A0690028286873
:100F800078D040F001002860FFF72AFE804659E043
:100F90002868800702D5A0690028DED0216A286869
:100FA000000703D5286800F0F00004E0D5F89400AD
:100FB000F02202EA1010814216D9084602F058FACF
:100FC000002848D1286840F0080028602868216A75
:100FD00020F0F000084328606868E16920F47F4051
:100FE00040EA0120686015E0286840F008002860A9
:100FF0002868216A20F0F000084328606868E169E9
:1010000020F47F4040EA01206860206A02F030FA54
:101010000028D6D1FFF74AFFA968CC4AC1F30311D3
:10102000515C01F01F01C840C94908600020FFF76A
:10103000F5FD00287ED12DE0FFF7D2FDA0EB0800E2
:10104000022878D828688007F6D5286840F008007C
:101050002860286801E0B8E00CE0216A20F0F00088
:10106000084328606868E16920F47F4040EA012075
:1010700068600FE020F001002860FFF7B1FD8046B6
:1010800005E0FFF7ADFDA0EB08000228D9D82868DD
:101090008007F6D42078C00740D0082E18D00C2E38
:1010A00001D1032F14D06068B0F5803F17D0B0F5A0
:1010B000A02F286817D020F480302860286820F4FA
:1010C000802028606068E0B1FFF78AFD804614E068
:1010D0002868800322D56068002876D01EE0286842
:1010E00040F48030EDE740F480202860F7E7FFF718
:1010F00077FDA0EB08006428A3D828688003F6D504
:101100000CE0FFF76DFD804605E0FFF769FDA0EB01
:101110000800642895D828688003F6D420788007D2
:1011200039D5042E11D00C2E01D1022F0DD0E0683C
:10113000002801E02DE19BE028681DD040F480707C
:101140002860FFF74DFD07460BE0286840050BD5EA
:10115000E0680028C1D007E0FFF742FDC01B02286D
:1011600094D828684005F7D56868217C20F0F850AD
:1011700040EA016068600EE020F480702860FFF7AC
:101180002FFD074604E0FFF72BFDC01B02286FD898
:1011900028684005F7D42078000728D56069002822
:1011A000D5F8940012D040F00100C5F89400FFF784
:1011B00017FD074604E0FFF713FDC01B022857D8B0
:1011C000D5F894008007F6D511E0E9E020F00100A1
:1011D000C5F89400FFF704FD074604E0FFF700FDA3
:1011E000C01B022844D8D5F894008007F6D4207894
:1011F000400766D5A86D4FF00008C00009D4A86D5F
:1012000040F08050A865A86D4FF0010800F08050B4
:10121000009050480168C90511D40168814641F425
:1012200080710160FFF7DCFC074604E0FFF7D8FCA3
:10123000C01B02281CD8D9F80000C005F6D5A0684C
:10124000012816D00528D5F8900017D020F001000D
:10125000C5F89000D5F8900020F00400C5F8900083
:10126000A06841F28839C0B1FFF7BAFC07460FE029
:1012700069E0D5F8900040F00100EFE740F004008D
:10128000C5F89000F5E7FFF7ABFCC11B49457FD8D7
:10129000D5F890008007F6D50CE0FFF7A1FC0746D3
:1012A00004E0FFF79DFCC11B494571D8D5F89000BB
:1012B0008007F6D4B8F1000F03D0A86D20F080505D
:1012C000A865A06AF0B30C2E6AD00228286820F026
:1012D0008070286004D0286810F0205F47D04AE072
:1012E000FFF77EFC064604E0FFF77AFC801B02282D
:1012F0004ED828688001F7D4206BE16A00011038CD
:101300000843616BA26B0902120941EA424108439A
:10131000A18F114A490802EB4151084394F840104B
:101320004908120102EB41610843E860286840F077
:1013300080702860E86840F08070E860FFF750FC3B
:10134000044610E02AE023E000100240B0520008FA
:1013500000000020007000400000E0FFFFF740FCAC
:10136000001B022814D828688001F7D516E0E86829
:1013700020F00300E860E8680A490840E860FFF7E9
:101380002FFC044607E0FFF72BFC001B022802D9C4
:101390000320BDE8F88328688001F4D40020F8E732
:1013A0000120F6E7FFFFEEFE2DE9F041040005D035
:1013B0000025A56294F85D0018B107E00120BDE8A2
:1013C000F08184F85C50204600F044F8022684F84E
:1013D0005D602068016821F040010160E0684FF421
:1013E000E062904201D9002101E04FF48051B0F554
:1013F000706F02D0904200D0A562276B012327B9FD
:10140000904201D9266300E02363D4E9010210432E
:10141000D4E9042632431043228B02F400721043B5
:10142000E2691043226A1043A26A104322681060E6
:10143000626B606AA66910430427E26807EA1646F1
:1014400032431043084321684860256684F85D30C4
:101450000020B4E7114800B5C16C87B041F002012B
:10146000C164C16C01F002010591816D41F400413C
:101470008165806D694600F4004005902820009049
:101480000220019001200290032003900620049086
:101490000348FFF7ADFA07B000BD0000001002409E
:1014A000000400482DE9F84F044690F85C0000263F
:1014B0001D469046894601280ED04FF0010B84F856
:1014C0005CB0FFF78DFB074694F85D004146B246DD
:1014D000012804D00226A0E0022000F0A4B8B9F14F
:1014E000000F71D0B8F1000F6ED0032084F85D00BA
:1014F000C4F860A0C4F83890A4F83C80A4F83E80FA
:10150000C4F840A0A4F844A0A4F846A0C4F850A091
:10151000C4F84CA0A068B0F5004F04D12068026860
:1015200042F48042026020680268520603D40268D6
:1015300042F040020260E068B0F5E06F606822D9D6
:1015400008B101291BD1A06B21680088C86006E0A2
:1015500020688168890709D5A16B0988C160A06BE3
:10156000801CA063E08F401EE08708E0FFF738FB97
:10157000C01BA84202D3681C01D045E0A5B3E08F90
:101580000028E5D135E008B101292FD1E08F0128ED
:10159000A06B03D921680088C8600FE0216800783B
:1015A000087314E0E08721E020688168890714D57A
:1015B000E18F0129A16B08D90988C160A06B801C4B
:1015C000A063E08F801EEDE726E009780173A06B31
:1015D000401CA063E08F401EE4E7FFF701FBC01B47
:1015E000A84202D3681C01D00EE06DB1E08F002844
:1015F000DAD13A462946204602F09CF908B120206B
:101600002066A06810B105E0032606E02068C168E6
:1016100080680090206E00B1012684F85DB084F8E7
:101620005CA0304659E718BCBDE8E08F4FF0E021E0
:101630000428086903D020F004000861704740F0D6
:101640000400FAE710B5401EB0F1807F01D30120FD
:1016500010BD4FF0E02460610F21601701F0BFF969
:101660000020A06107202061002010BD7047704756
:10167000704710B5040003D094F83D0010B107E0A6
:10168000012010BD002084F83C00204600F00CF83A
:10169000022084F83D00211D206802F08BFB012010
:1016A00084F83D00002010BD08B500680B49884251
:1016B00012D10B48816D41F002018165806D0322DA
:1016C00000F00200009001211D20FFF7CBFABDE8D9
:1016D00008401D20FFF7BBBA08BD00000004004011
:1016E000001002400168CA6842F00102CA60006846
:1016F000826807490A40062A08D082680A40B2F583
:10170000803F03D0016841F0010101600020704773
:10171000070001002DE9F041114C12484FF480659B
:101720002278002A4FF0000204D02946BDE8F0419B
:10173000FFF750BA4FF4007631460746FFF74AFAF2
:10174000012231463846FFF745FA0122294638463C
:10175000FFF740FA2078401C2070BDE8F0810000BF
:1017600018000020000400482DE9F041044690F8DC
:101770003C000D4601283CD0012684F83C60022044
:1017800084F83D00A2B3042A45D02068082A54D02A
:10179000D5E90027E968036A23F480530362D0F88F
:1017A0001CC0036A2CF4407C4CEA07274FF6FF7CF0
:1017B00027F470470CEA013139434FF4204723F4F2
:1017C000204307EA02321A43C16102622068C169FC
:1017D00021F44061C1612068C169AA6841EA02211F
:1017E000C16184F83D60002084F83C00BDE8F081D0
:1017F00001E00220FAE7D5E90012EB68206802F068
:1018000047FB2068816921F00C01816120688169B2
:10181000AA6811430FE0D5E90012EB68206802F0D6
:1018200073FB2068816921F44061816120688169CE
:10183000AA6841EA02218161D3E7D5E9002C2F7B18
:10184000016A21F480710162C169036A21F0030118
:1018500041EA0C0121F0F00C39074FF420674CEA03
:10186000116123F4206307EA02221A43C161026274
:101870002068C16921F00C01C1612068C169AA68B2
:101880001143ADE710B5040003D094F83D0010B14A
:1018900007E0012010BD002084F83C00204600F045
:1018A0000DF8022084F83D00211D206802F082FA24
:1018B000012084F83D00002010BD0000154800B54F
:1018C000816D87B041F001018165816D01F00101F9
:1018D0000591C16C41F00201C164C06C694600F021
:1018E000020005904FF400600090022001900290E9
:1018F00003200390012004900748FFF779F80022A5
:1019000002211C20FFF7AEF91C20FFF7A0F907B059
:1019100000BD0000001002400004004810B502683D
:10192000044631B1042908D008291FD00C2908D158
:1019300020E0D06840F0020002E0D06840F00400EF
:10194000D0600122206802F095FA206882680B4975
:101950000A40062A08D082680A40B2F5803F03D0C8
:10196000016841F001010160002010BDD06840F025
:101970000800E5E7D06840F01000E1E7070001004B
:1019800070B50446006801694FF00005C943890736
:1019900015D4C168C943890711D4E91E016101202A
:1019A0002077206880698007204602D0FFF7B2FECA
:1019B00004E000F0A7F8204600F0A5F8257720689D
:1019C0000169C943490717D4C168C943490713D4FA
:1019D0006FF004010161022020772068806910F413
:1019E000407F204602D0FFF795FE04E000F08AF821
:1019F000204600F088F8257720680169C943090767
:101A000016D4C168C943090712D46FF008010161F7
:101A1000042020772068C0698007204602D0FFF7A5
:101A200079FE04E000F06EF8204600F06CF82577AF
:101A300020680169C943C90617D4C168C943C906EA
:101A400013D46FF010010161082020772068C0696D
:101A500010F4407F204602D0FFF75CFE04E000F067
:101A600051F8204600F04FF8257720680169C943F6
:101A7000C90708D1C168C943C90704D1891E0161DA
:101A8000204600F041F820680169C943090609D4DD
:101A9000C168C943090605D46FF080010161204681
:101AA000FFF7E5FD20680169C943C90509D4C1688C
:101AB000C943090605D46FF4807101612046FFF720
:101AC000D5FD20680169C943490609D4C168C943E5
:101AD000490605D46FF040010161204600F02CF862
:101AE00020680169C94389060BD4C168C9438906C6
:101AF00007D46FF0200101612046BDE87040FFF778
:101B0000B7BD70BD7047704710B50549884206D112
:101B1000044C05A02178FEF727FC0020207010BDA2
:101B20008C0800201A0000206672616D653A2564F9
:101B30006670730D0A000000704770477047000020
:101B40002DE9F04102680446D0691168936810F0ED
:101B50000F0F4FF000055BD003F0010601F4907702
:101B6000374369D0C70707D0CF0505D501271762CE
:101B7000626F42F001026267820708D5DA0706D079
:101B8000276802223A62626F42F0040262674207EB
:101B900008D5DA0706D0236804221A62626F42F081
:101BA0000202626702070AD501F02002324306D022
:101BB000236808221A62626F42F008026267626F4D
:101BC000002A32D0800605D5880603D5216E09B1DA
:101BD00020468847606F000703D42068806840066D
:101BE00025D5204602F047FA20688168490619D5B4
:101BF000816821F040018160E06E98B120498163E5
:101C0000E06EFEF790FE00280FD0E06E816B06E0DC
:101C1000860611D58E060FD5216E1EE02046BDE842
:101C2000F04108472046FFF789FFBDE8F0812046D4
:101C3000FFF784FF6567F8E7C60209D55B0207D5A1
:101C40004FF4801010622046BDE8F041FFF775BFE9
:101C5000030605D50B0603D5616E0029DED1E4E746
:101C60004006E2D54806E0D51168204621F0400143
:101C70001160202184F87110656600F0E2F8D4E765
:101C80006340000810B5040003D094F8710010B14F
:101C900007E0012010BD002084F87000204600F00D
:101CA00027F8242084F871002068016821F00101E0
:101CB0000160204602F0F0F90128EBD0606A10B113
:101CC000204602F03CF92068416821F490414160CF
:101CD0002068816821F02A0181602068016841F054
:101CE000010101602046BDE8104002F08CB90000FF
:101CF00010B50068154986B0884225D11448C16CDA
:101D000041F00101C164C16C01F001010591816DD7
:101D100041F400318165806D012100F400300590AF
:101D2000042000900220CDE90101039007204FF02C
:101D30009044049069462046FEF75AFE082100911F
:101D400069462046FEF754FE06B010BD0044004030
:101D5000001002402DE9F84F044690F872009846B2
:101D600016460D46202867D1FDB1F6B194F87000F3
:101D7000012861D0012084F870004FF00009C4F8F8
:101D80007490222084F872005434FEF729FFA68054
:101D90008246E68054F84C0C4FF48057FF21543CA7
:101DA000B84208D1206918B10DE0012000F046B812
:101DB00040F2FF100DE07F2218B1B0F1805F05D036
:101DC00009E0206950B9A4F85C1004E0206928B14A
:101DD0003F20A4F85C00B4F85C601CE0A4F85C2030
:101DE000F9E75346002220212046CDF8008002F07A
:101DF000B1FA08B10320D9E7A068B84201D120693F
:101E0000A0B12068808C304005F8010BB4F85A006E
:101E1000401EA4F85A00B4F85A000028E1D120204E
:101E200084F8720084F870900020BFE72068808CEE
:101E3000304025F8020BE9E70220B7E718BCBDE8FF
:101E4000E08F7047FEE7000070B5134C0022402180
:101E50002046FEF7BFFE1148016821F00C01016029
:101E6000016841F00401016000220221FEF7B2FE88
:101E70004FF4FA75284602F00BFB01224021204660
:101E8000FEF7A8FE284602F003FB2046BDE870409E
:101E900000224021FEF79EBE000C004800080048CA
:101EA00070B5194886B0C16C41F00401C164C16CC1
:101EB00001F004010591C16C41F00801C164C06CDE
:101EC000022500F0080001240590CDE900540F4ED2
:101ED00069463046CDE90245FEF78AFD4020CDE94E
:101EE0000004CDE902450A4C69462046FEF780FD14
:101EF000012202213046FEF76DFE012240212046DC
:101F0000FEF768FE06B070BD0010024000080048F1
:101F1000000C004870B5134C002240212046FEF70B
:101F200059FE1148016821F00C010160016841F07F
:101F30000401016001220221FEF74CFE4FF4FA7504
:101F4000284602F0A5FA012240212046FEF742FE73
:101F5000284602F09DFA2046BDE87040002240214C
:101F6000FEF738BE000C0048000800482DE9F04795
:101F700080461A480024016821F00C0101600168C4
:101F80000160174E254681464FF4FA770022402122
:101F90003046FEF71FFE384602F07AFA0122402151
:101FA0003046FEF717FE6006040E02214846FEF793
:101FB00008FE08B1641CE4B2384602F069FA6D1CF0
:101FC000EDB2082DE2D3B8F1000F04D0FFF73CFFCB
:101FD0002046BDE8F087FFF79DFFF9E700080048BD
:101FE000000C00482DE9F0411A4F0546386820F0F2
:101FF0000C003860386840F004003860164E00224B
:1020000040213046FEF7E6FDB84600244FF4FA774B
:10201000280601D5012200E0002202214046FEF7F9
:10202000D9FD6806050E012240213046FEF7D2FD9B
:10203000384602F02DFA002240213046FEF7CAFD54
:10204000384602F025FA641CE4B2082CE0D3BDE85F
:10205000F081000000080048000C004870B5144CE6
:10206000206820F00C002060206840F00400206010
:10207000012202212046FEF7ADFD0E4D0122402136
:102080002846FEF7A7FD4FF4FA76304602F000FA34
:10209000002202212046FEF79DFD304602F0F8F9AD
:1020A0002846BDE8704000224021FEF793BD0000A5
:1020B00000080048000C004870B5144C206820F05F
:1020C0000C002060206840F0040020600022022103
:1020D0002046FEF77FFD0E4D012240212846FEF7E7
:1020E00079FD4FF4FA76304602F0D2F9012202214E
:1020F0002046FEF76FFD304602F0CAF92846BDE8DB
:10210000704000224021FEF765BD00000008004835
:10211000000C00482DE9F041194E0024304631688A
:1021200021F00C0131603168316001220221FEF79B
:1021300051FD4FF4FA75284602F0AAF9114F012219
:1021400040213846FEF746FD284602F0A1F96D0011
:1021500008E0641CA4B2AC4204D9FFF7ADFF012033
:10216000BDE8F08102213046FEF72BFD0028F0D1BA
:10217000002240213846FEF72DFD0020F0E7000048
:1021800000080048000C004830B5164887B0C16C04
:1021900041F00401C164C16C01F004010591C16CFE
:1021A00041F00801C164C06C002500F008000590F2
:1021B0004FF4E060CDE9000502200324CDE90204DC
:1021C00069460948FEF714FC4FF40050CDE90005BC
:1021D0000120CDE9020469460448FEF709FC07B076
:1021E00030BD000000100240000C0048000800480C
:1021F0002DE9F05F0126324CB702DFF8C8B0324D4E
:102200004FF400784FF480794FF4005A01281DD024
:102210002078A0B139462846FEF7D3FCC0B141462C
:102220002846FEF7CEFC98B149462846FEF7C9FC81
:1022300070B151465846FEF7C4FC012808D0394613
:102240002846FEF7BEFC012826D037E02670E1E7DD
:102250000A2002F00FF90020207039462846FEF7C8
:10226000B0FC80B141462846FEF7ABFC70B1494650
:102270002846FEF7A6FC58B151465846FEF7A1FC89
:10228000012807D01AE0012000F020B80220FBE767
:102290000320F9E70420F7E741462846FEF791FCC2
:1022A00001280BD149462846FEF78BFC012805D1B1
:1022B00051465846FEF785FC00B926700020E3E73A
:1022C0001900002000080048000C004830BCBDE8A0
:1022D000C09F00002DE9F0411C4E4FF40055002432
:1022E00029463046FEF76DFC44EAC0146F003946BB
:1022F0003046FEF766FC44EA80144FF4004841463D
:102300003046FEF75EFC44EA401404211048FEF714
:1023100058FC104E44EA001469103046FEF751FC98
:1023200044EAC00429463046FEF74BFC44EA8004E8
:1023300039463046FEF745FC44EA4000C4B2414607
:102340003046FEF73EFC2043BDE8F0810004004823
:1023500000080048000C00482DE9F04107461C46E3
:1023600015460E462A2000F0B9FA380A00F0C4FAE1
:10237000F8B200F0C1FA280A00F0BEFAE8B200F0A4
:10238000BBFA2B2000F0AAFA300A00F0B5FAF0B23E
:1023900000F0B2FA200A00F0AFFAE0B200F0ACFAB6
:1023A000BDE8F0412C2000F099BA000070B5050A94
:1023B000C4B2EF2300211A460846FFF7CDFF0F49AC
:1023C00000204FF4107201F8105001EB4003401C44
:1023D00080B25C709042F6D3012210210848FEF7CB
:1023E000F9FB00244FF490652946044800F074F985
:1023F000641CA4B2642CF7D370BD000068030020F5
:10240000000400482DE9F047151A5F1A6D1C7F1C67
:102410007D4300246D004FF49068089E454502D925
:10242000A5F590644546FFF797FF370ADFF84C9013
:10243000DFF84CA0F6B20020494606E001F8107023
:1024400001EB4002401C567080B2B0EB550FF5D343
:10245000012210215046FEF7BDFBA9B2074800F04B
:102460003BF9002C07D0444502D9A4F59064E2E77B
:1024700025460024DFE7BDE8F08700006803002060
:102480000004004830B5254887B0C16C41F0020116
:10249000C164C16C01F002010591C16C41F00801F9
:1024A000C164C06C1E4C00F008000590D020009064
:1024B0000120019002900220039069462046FEF719
:1024C00097FA0022D0212046FEF784FB8021154D8B
:1024D000009169462846FEF78BFA002280212846A3
:1024E000FEF778FB002280212846FEF773FB0022CE
:1024F00080212046FEF76EFB002240212046FEF799
:1025000069FB782001F0B6FF012240212046FEF74A
:1025100061FB01F0DFF907B030BD000000100240A0
:1025200000040048000C004810B5FFF7ABFF78200E
:1025300001F0A0FF112000F0D1F9782001F09AFFFE
:10254000362000F0CBF9002000F0D6F93A2000F058
:10255000C5F9652000F0D0F9B22000F0BFF90C20D9
:1025600000F0CAF90C2000F0C7F9002000F0C4F90F
:10257000332000F0C1F9332000F0BEF9B72000F09D
:10258000ADF9722000F0B8F9BB2000F0A7F93D20AA
:1025900000F0B2F9C02000F0A1F92C2000F0ACF955
:1025A000C22000F09BF9012000F0A6F9C32000F042
:1025B00095F9192000F0A0F9C42000F08FF920202F
:1025C00000F09AF9C62000F089F90F2000F094F984
:1025D000D02000F083F9A42000F08EF9A12000F0B3
:1025E0008BF9E02000F07AF9D02000F085F9042082
:1025F00000F082F90D2000F07FF9112000F07CF945
:10260000132000F079F92B2000F076F93F2000F03C
:1026100073F9542000F070F94C2000F06DF9182087
:1026200000F06AF90D2000F067F90B2000F064F962
:102630001F2000F061F9232000F05EF9E12000F096
:102640004DF9D02000F058F9042000F055F90C2085
:1026500000F052F9112000F04FF9132000F04CF96E
:102660002C2000F049F93F2000F046F9442000F00A
:1026700043F9512000F040F92F2000F03DF91F20D0
:1026800000F03AF91F2000F037F9202000F034F96B
:10269000232000F031F9212000F020F9292000F05A
:1026A0001DF9EF2300211A460846FFF755FE4FF6A5
:1026B000FF70FFF77BFE0122BDE81040802101483A
:1026C000FEF788BA000400480346012000E05843A2
:1026D000491EC9B2FBD2704701F022B92DE9F05F63
:1026E000203AD5B21C46F022A2EB5402824256D3C5
:1026F000C4F1F0028A4252DB0A19521E93B200EB77
:102700005402521E92B2FFF727FE3F4F102C15D0F5
:10271000202C13D00C2C44D0182C40D13B4905EB75
:1027200045004FF0300A002401EB0019B84619F8B3
:102730000460E00752D0042700255EE0600700D067
:10274000012000EBD400610810FB01F000F0FF0B4A
:102750002F48002600EB051A00F5BE5000EBC51906
:10276000B8461AE0102C09D0202C18D119F80650C0
:102770000027280605D5B8F8000004E01AF806502E
:10278000F6E7B8F8020000F0C5F868067F1C050EF1
:10279000FFB2082FEDD3761CF6B25E45E2D300F00F
:1027A0003BB81C4805EB45014FF00C09002600EB37
:1027B0008108002418F80650280601D5388800E062
:1027C000788800F0A7F86806641C050EE4B2062CB1
:1027D000F2D3761CF6B24E45EBD3E0E70827ABE721
:1027E000300602D5B8F8000001E0B8F8020000F0A9
:1027F00091F87006060E6D1CEDB2BD42F0D3641C5C
:10280000E4B2544593D3CAE7140000205C5D00088D
:102810006C570008F852000830BCBDE8C09F2DE995
:10282000F05F0027DDF828A01D4691468B468046C4
:102830003C464FEA5A0623E0281B401EC1B20A203C
:10284000FFF742FFB9FBF0F00A21B0FBF1F201FB08
:10285000120027B9691E8C4201DA38B101273030E5
:10286000C2B206FB048080B2534604E006FB04803B
:1028700080B2534620225946FFF730FF641CE4B271
:10288000AC42D9D300F000B830BCBDE8C09F2DE900
:10289000F047044600F0FF0810190D46DDE9087600
:1028A0001FFA80FA58191FFA80F90FE0544502D335
:1028B000E819444685B24D450DD23B46294620468F
:1028C000FFF70CFF04EB570084B2761C3278A2F1BC
:1028D00020005E28EAD9BDE8F087000001B500229B
:1028E00010210448FEF776F901216846FFF7F4FE4F
:1028F00008BD00000004004801B501221021044871
:10290000FEF768F901216846FFF7E6FE08BD000002
:102910000004004808B500210091010A8DF800105C
:102920008DF80100012210210348FEF753F902211E
:102930006846FFF7D1FE08BD0004004830B50F48D7
:1029400087B0C16C41F01001C164C06C4FF4607479
:1029500000F0100005900120CDE900400290022017
:10296000074D039069462846FEF742F801222146AA
:102970002846FEF72FF907B030BD000000100240D6
:102980000010004810B5412826D108210846FDF75F
:10299000B9FF3D21112001F047FD8621172001F0EC
:1029A00043FD7F21262001F03FFD1E212D2001F057
:1029B0003BFD00212C2001F037FD8D212A2001F064
:1029C00033FD3E212B2001F02FFD022001F060FDA0
:1029D000BDE8104000F017BB10BDFEE770470907C7
:1029E000090E002806DA00F00F0000F1E02080F860
:1029F000141D704700F1E02080F80014704710B5F6
:102A0000001D092815D2DFE800F01F1D12100E0C62
:102A10000A070500482100E03821062409E02821A2
:102A2000FBE71821F9E70821F7E7082100E0182162
:102A30000E249B2000F0E6FE2146BDE81040AB20AE
:102A400000F0E0BE2821F3E73821F1E710B5011DC1
:102A500008290BD804014034E1B2A72000F0D2FECF
:102A6000E1B2BDE81040A82000F0CCBE10BD011DB1
:102A7000082906D8202101EB8000C1B29C2000F07B
:102A8000C1BE70472DE9F041724886B00024C16C88
:102A900041F00101C164C16C01F001010591C16CFB
:102AA00041F00201C164C16C01F002010591C16CE9
:102AB00041F00401C164C16C01F004010591C16CD5
:102AC00041F00801C164C06C012500F008000590C8
:102AD00002204FF48076CDE90250CDE900654FF039
:102AE000904769463846FDF783FF01223146384654
:102AF000FEF770F86E02DFF86081CDE90065694687
:102B00004046FDF775FF012231464046FEF762F868
:102B10004020CDE90005514E69463046FDF768FF7B
:102B2000012240213046FEF755F82F03CDE900750C
:102B300069464046FDF75CFF012239464046FEF7F4
:102B400049F8AF02CDE9007569464046FDF750FFF0
:102B5000012239464046FEF73DF8EF020025CDE957
:102B6000007569464046FDF743FF0122394640465D
:102B7000FEF730F84FF47040CDE9000503200390D4
:102B800069463748FDF734FF0420CDE90005694662
:102B90003046FDF72DFF4FF46040CDE90005694652
:102BA0004046FDF725FF00F0BDFC8021122000F01B
:102BB00029FE18B1012006B0BDE8F081322001F0F5
:102BC00059FC1C2000F05AFD4FF6FF7606EA00255E
:102BD0001D2000F053FD40EA0501A1F5FE40A2389A
:102BE00003D020A0FDF7C0FBE4E70A2000F046FD7B
:102BF00006EA00250B2000F041FD40EA0501A1F5A1
:102C0000EE40213804D01AA0FDF7AEFB0220D2E737
:102C10001A4D822114A0FDF7A7FB022112A0FDF797
:102C2000A3FB05EB4400417815F8140000F0EAFD21
:102C30000321652000F0E6FD0321A12000F0E2FD64
:102C40000321A22000F0DEFD641CA4B2412CE0D3DD
:102C50000020B0E7001002400004004800080048CF
:102C6000000C00484D49443A25640D0A000000005C
:102C70004849443A25640D0A000000006C380108F8
:102C800010B5062847D2DFE800F003061D27313CC7
:102C9000FF21132009E0FD21132000F0B3FD5A218C
:102CA000012000F0AFFD5C2129E000F0ABFD6521C3
:102CB0000E2000F0A7FD00212D2000F0A3FD002133
:102CC0002E2024E0FD21132000F09CFD582101203E
:102CD00000F098FD602112E0FD21132000F092FD2C
:102CE0008421012000F08EFD4C2108E0FD211320FD
:102CF00000F088FD9621012000F084FD4021022093
:102D0000D3E7FF21132000F07DFDE5210E20BDE873
:102D1000104000F077BD10BD10B5072840D2DFE8A5
:102D200000F0040609131D273100062103E04621A7
:102D3000A62031E02621A62000F064FD802160203D
:102D400000F060FD802126E01E21A62000F05AFD43
:102D50008021602000F056FDC0211CE01E21A6202D
:102D600000F050FD6021084600F04CFD602112E0AB
:102D70001E21A62000F046FDA021602000F042FDAB
:102D8000402108E01E21A62000F03CFD40216020EB
:102D900000F038FDA0216120BDE8104000F032BDF8
:102DA00010BD2DE9F0470C4605464AB3C5F5207025
:102DB00000EBD070C0F34F07C4F5F07000EBD0709B
:102DC000C0F34F060621122000F01CFD232117201E
:102DD00000F018FDA021182000F014FD0721192093
:102DE00000F010FDF0211A2000F00CFD002132202F
:102DF00000F008FDA021292000F004FDF02128E0CA
:102E0000C5F5A07000EBD070C0F34F07C4F1F0001F
:102E100000EBD070C0F34F064621122000F0F2FC08
:102E20003F21172000F0EEFC5021182000F0EAFCB2
:102E30000321192000F0E6FC78211A2000F0E2FCC2
:102E40000021322000F0DEFC5021292000F0DAFCC5
:102E500078212C2000F0D6FC172000F00FFC00EBAE
:102E60009700C1B2172000F0CDFCC5F387018A4658
:102E7000182000F0C7FC192000F000FC00EB560001
:102E8000C1B2192000F0BEFCC4F3470189461A20E4
:102E900000F0B8FC322000F0F1FB8046F007400E55
:102EA00007F0030104F0010640EA011040EA860140
:102EB00005F00304214341EA0801322000F0A2FC9E
:102EC0005146292000F09EFC49462C2000F09AFC37
:102ED0002A2000F0D3FB44EA080444EA8601BDE856
:102EE000F0472A2000F08EBC2DE9F05F2021002061
:102EF00001F076FE0120FFF77BF93D4800780028BD
:102F000074D0F02300211A460846FFF725FA4FF443
:102F100080754FF09046002229463046FDF75AFE54
:102F2000344C2F01002239462046FDF753FE012282
:102F300039462046FDF74EFE002239462046FDF771
:102F400049FE012229463046FDF744FE012239465A
:102F50002046FDF73FFE0020FFF74AF9DFF898B062
:102F600082460026A1460024002239464846FDF745
:102F700031FEFFF7AFF90546012239464846FDF715
:102F800029FE4FF6FF7000EA052800223946484620
:102F9000FDF720FEFFF79EF940EA080501223946B9
:102FA0004846FDF717FEBAF1010F02D1284601F09D
:102FB0003BFE290A0BF814100BEB4400641C45700F
:102FC000F02CD1D3012210214846FDF703FE4FF427
:102FD000F0710948FFF780FB761CF02EC3D304483C
:102FE0000021017005490878401C087000F008B8FD
:102FF0001800002000040048480000201A000020AB
:1030000030BCBDE8C09F10B5142000F06FFA8007F7
:1030100005D10321BDE81040142000F0A3BD10BD70
:1030200070B50646082188B000240846FDF76AFC02
:1030300000210D2001F0F8F980210E20FDF762FC3F
:1030400093208DF8040020208DF8050006A801AB20
:103050000090022219460C2000F040F805000DD126
:10306000002101A8425C7254425C491C5440C9B220
:103070000429F7D3405CA04200D0022580210E2015
:1030800000F070FD08B0284670BD30B587B08DF8EF
:1030900004008DF80510002001A9145C0D18401CD7
:1030A000C0B2AC700628F8D300200C181A5C401C83
:1030B000C0B222720628F8D306A800900B460C2254
:1030C0000E2000F00BF8040004D1082000F00EFAE6
:1030D000000700D4022407B0204630BD2DE9FF5F71
:1030E0000025DDF838B017468A4681464FF00208C1
:1030F0002E460C2805D0B9F10E0F04D1122510264A
:1031000001E07725302645F08001022001F08CF99E
:1031100080210420FDF7F6FB0021012001F084F955
:1031200080210A2000F01EFD002405E01AF804109A
:10313000092001F079F9641CBC42F7D3494601200B
:1031400001F072F9B9F10C0F03D180210D2000F0CC
:1031500009FD4FF47A74042000F0C8F90746641E94
:1031600003D0F80701D13742F5D080210D20FDF7BB
:10317000C9FB3CB1062000F0B9F910F01B0F0DD0CF
:103180004FF0020880210C2000F0ECFC002101200F
:1031900001F04AF904B0404600F02CB82F404FF03F
:1031A0000008F80701D04FF00108B9F10C0FE9D180
:1031B0000A2000F09BF905460C2000F097F910F06A
:1031C00007004FEAC50101D008390144CBF80010CF
:1031D00025B1122D00D91225002408E00125FBE7B6
:1031E000092000F083F9014603980155641CAC42A4
:1031F000F6D3C7E730BCBDE8C09F30B587B00C46FA
:1032000030218DF8041001AD8DF80500022128460B
:10321000AA1CFDF744FB06A801AB00900422194646
:103220000C20FFF75BFF10B90699902902D002200D
:1032300007B030BD0023E95CE1545B1CDBB2102B0E
:10324000F9D3F5E730B50C460546082187B00846A6
:10325000FDF758FB07210D2001F0E6F803211420AB
:1032600000F080FC06A801AB00908DF8045001220C
:1032700019460C20FFF732FF10B90699102902D029
:10328000022007B030BD9DF8041021709DF8051094
:103290006170F6E710B51F4C012208212046FDF7AA
:1032A00099FC012001F0F4F8002208212046FDF7E6
:1032B00091FC012001F0ECF8012208212046FDF7E5
:1032C00089FC012001F0E4F80F21012001F0ACF8A5
:1032D000012000F00BF9C006FAD4012001F0D8F863
:1032E0003D21112001F0A0F81E212D2001F09CF8B5
:1032F00000212C2001F098F88D212A2001F094F86B
:103300003E212B2001F090F84021BDE8104015200F
:1033100001F08AB8000C004810B588B093218DF8F0
:10332000041070218DF8051000218DF80A1001AAF3
:103330005418435CA370445C9DF80A30491C6340F8
:10334000C9B28DF80A300429F2D3072101A8D21D91
:10335000FDF7A5FA08210846FDF7D4FA06A801AB47
:103360000090092219460C20FFF7B8FE10B9069903
:10337000182900D0022008B010BD7047F8B52C49BC
:103380005220FFF75FFF2A4CA41E002860704ED128
:1033900002256570201DFFF743FE6070002846D1AE
:1033A000244E012204213046FDF714FC642001F074
:1033B00061F8002204213046FDF70CFC30206570D6
:1033C00003460090221DC821002000F0D7FB201DDD
:1033D000FFF7A2FF60700020401C0428FCDB164FA2
:1033E0004FF48076002231463846FDF7F3FB4FF468
:1033F0007A7001F03FF8012231463846FDF7EAFBCA
:103400006078002813D10A4B65709B1C1A1D092196
:103410006020FFF73AFE6070002808D16570074908
:103420002078FFF7EAFE6070002800D16570F8BDD3
:103430003A0000200004004800100048E018012075
:1034400010B500F0FFF9094C012208212046FDF7D4
:10345000C1FB012220212046FDF7BCFBFFF71AFF2C
:10346000BDE810404120FFF78DBA0000000C004875
:10347000F8B51C4E05460024B06DC00002D5FDF71E
:1034800057FC0DE0B06D40F08050B065B06D00F0BD
:1034900080500090FDF74CFCB16D21F08051B1657A
:1034A000B0F5007F04D0802D07D94FF003040AE067
:1034B000802D08D9A02D01D804E001D1022402E01A
:1034C000702D00D101240848016821F00701214333
:1034D0000160006800F00700A04201D00120F8BDA3
:1034E0000020F8BD001002400020024070B57E218F
:1034F00001EA40000A4D40F08004002220212846C5
:10350000FDF768FB204600F067FA00F037FA044642
:10351000012220212846FDF75DFB204670BD0000FA
:10352000000C0048F0B51E4887B0C16C41F00401A2
:10353000C164C16C01F004010591C16C41F002014C
:10354000C164C06C012400F0020005904FF4807645
:10355000CDE90064134F022569463846CDE902459E
:10356000FDF746FA012231463846FDF733FB80204D
:10357000CDE90004CDE902450B4C69462046FDF734
:1035800037FA012280212046FDF724FB206820F431
:1035900040402060206840F48040206007B0F0BDCB
:1035A00000100240000400480008004870B53220B6
:1035B00000F06EFF104C012280212046FDF70AFB2F
:1035C00001220E4E150229463046FDF703FB32203C
:1035D00000F05EFF002229463046FDF7FBFA32205C
:1035E00000F056FF002280212046FDF7F3FABDE8E7
:1035F0007040322000F04CBF000800480004004832
:103600002DE9F0411B480024016821F4404101608C
:10361000016801600825184F80466E01322000F0D5
:1036200037FF012231463846FDF7D4FA6006040E12
:1036300080214046FDF7C5FA08B1641CE4B232208F
:1036400000F026FF002231463846FDF7C3FA6D1E12
:1036500015F0FF05E2D1D8F8001021F44041C8F878
:103660000010D8F8001041F48041C8F8001020463E
:10367000BDE8F081000800480004004810B5044689
:1036800000F022F8422000F063F8642000F000FF10
:10369000204600F05DF8642000F0FAFE00F038F8F3
:1036A000642000F0F5FE00F00FF8432000F050F821
:1036B000642000F0EDFEFFF7A3FF0446FFF776FF5E
:1036C00000F026F8204610BD70B50F4C0122802175
:1036D0002046FDF77FFA01220C4E1502294630469E
:1036E000FDF778FA322000F0D3FE00228021204638
:1036F000FDF770FA322000F0CBFE29463046BDE8D7
:1037000070400022FDF766BA000800480004004837
:1037100010B50D4C002280212046FDF75BFA3220C7
:1037200000F0B6FE012211020848FDF753FA3220DC
:1037300000F0AEFE012280212046FDF74BFABDE8E5
:103740001040322000F0A4BE0008004800040048E9
:103750002DE9F041DFF8A480294F054600244FF4FD
:103760008076280601D5012200E000228021404613
:10377000FDF730FA6806050E322000F089FE0122BE
:1037800031463846FDF726FA322000F081FE00224D
:1037900031463846FDF71EFA641CE4B2082CE0D32B
:1037A000D8F80000444620F44040C8F80000D8F89B
:1037B0000000C8F80000322000F06AFE0122314605
:1037C0003846FDF707FA322000F062FE80212046DD
:1037D000FDF7F7F908B1012500E000250022314688
:1037E0003846FDF7F7F9206820F440402060206853
:1037F00040F4804020602846BDE8F0810008004881
:103800000004004870B50D4606460024FFF75CFF33
:103810004220FFF79DFF00B10124642000F038FE34
:103820003046FFF795FF00B10124642000F030FE20
:103830002846FFF78DFF00B10124FFF769FF2046FE
:1038400070BD0000F0B5204887B0C16C41F00201A6
:10385000C164C16C01F002010591C16C41F0080125
:10386000C164C06C012500F0080005902020CDE95E
:103870000005164E0224694603943046FDF7B8F859
:103880002003CDE90005124F694603943846FDF741
:10389000AFF8600300900020019069460394384619
:1038A000FDF7A6F8A003CDE9000569460394384664
:1038B000FDF79EF80820CDE90005694603943046DF
:1038C000FDF796F807B0F0BD00100240000C00486C
:1038D0000004004810B5114C0F484FF4E06120601F
:1038E0004FF4827060600020C4E90201022121616E
:1038F000012161614902C4E9061020626062A06290
:103900000720E0622046FDF74FFD2068016841F086
:103910004001016010BD0000003C0040E8070020AD
:103920000A4601464FF47A730148FDF7BBBD00001B
:10393000E8070020F8B515460E460B4600920446EF
:1039400000224FF4C05100F077F888B933460022C6
:1039500080212046009500F0BAF848B9334600228D
:103960004FF4C0612046009500F066F8002804D0AE
:10397000206E40F0200020660320F8BD2DE9F041C4
:10398000144E00254FF480484FF400576006040E93
:10399000002239463046FDF71DF9142000F078FD6D
:1039A00041463046FDF70DF9012801D144F00104EC
:1039B000142000F06DFD012239463046FDF70AF96A
:1039C000142000F065FD6D1CEDB2082DDED32046FD
:1039D000BDE8F081000400482DE9F041154F05468F
:1039E00000244FF400484FF40056280601D5012268
:1039F00000E0002241463846FDF7ECF8142000F0C4
:103A000047FD002231463846FDF7E4F8142000F067
:103A10003FFD012231463846FDF7DCF8142000F066
:103A200037FD6806641C050EE4B2082CDDD3BDE842
:103A3000F0810000000400482DE9F0471D461646BD
:103A40000F4604464FF4C069DDF820800CE04F4576
:103A500001D106B9007B681C06D0FDF7C1F8A0EBC8
:103A60000800A84208D23DB1206881683940B142BF
:103A7000EDD10020BDE8F0872068416821F0E00129
:103A800041606068B0F5827F0BD1A068B0F5004F4F
:103A900002D0B0F5806F04D12068016821F04001A8
:103AA0000160A06AB0F5005F09D12068016821F4C7
:103AB000005101602068016841F40051016001205B
:103AC00084F85D00002084F85C000320D2E72DE933
:103AD000F0411D4617460E460446DDF8188008E002
:103AE000681C06D0FDF77CF8A0EB0800A8420BD2BA
:103AF00055B12068806836EA000030D00020B84216
:103B0000EED10020BDE8F0812068416821F0E0019D
:103B100041606068B0F5827F0BD1A068B0F5004FBE
:103B200002D0B0F5806F04D12068016821F0400117
:103B30000160A06AB0F5005F09D12068016821F436
:103B4000005101602068016841F4005101600120CA
:103B500084F85D00002084F85C000320D2E7012097
:103B6000CDE7704770B50C460546FFF7BFFC40EA4D
:103B700004012846BDE8704000F056BCF0B58BB09B
:103B8000002008AC135C190904F81010092901D9A8
:103B9000373100E0303104F8101003F00F0104EB6E
:103BA00040030929597001D9373100E03031401CF8
:103BB000C0B259700428E5D30020244C642703AD1B
:103BC0000A264FF02D0C215CB1FBF7F2303205F8DC
:103BD0002020B1FBF7F207FB1212B2FBF6F305EB64
:103BE000800230335370B1FBF6F306FB1311303112
:103BF000401C9170C0B282F803C00428E3D30020B7
:103C00008DF81B008DF82800102611A0CDE900606A
:103C100033469622AA210620FEF739FECDE900653B
:103C200010239622AA213C20FEF731FE6078E2782C
:103C3000A1788DE8070005482378801E4278017836
:103C400005A0FCF791FB0BB0F0BD00003C0000208C
:103C5000524649443A0000000D0A206B696E643AEE
:103C600025642025640D0A20636172643A2564206E
:103C700025642025642025640D0A0000FCF7B6BFEA
:103C80001A4810B5816D98B041F080518165806D02
:103C9000012100F0805016900804CDE900100220A8
:103CA00003240A90CDE90B4114210D910721CDE9A0
:103CB0000E1010906846FDF74DF900B1FEE70F2099
:103CC000CDE911040020139014901590042111A83F
:103CD000FDF736F800B1FEE74FF40070FCF7F4FF93
:103CE000002800D0FEE718B010BD00000010024010
:103CF0000D48016841F4700101600C48016841F011
:103D000001010160002181600268094B1A400260D4
:103D10008214C260026822F480220260816102493A
:103D2000C00380390860704788ED00E00010024051
:103D3000FFFFF6EA1FB50D4A00244FF08043C2E9A9
:103D400002401461C2E900311046FDF79BFD0120DD
:103D5000CDE9004002940C22694604480394FDF723
:103D600003FD0C210148FDF7D9FD1FBD4C080020C3
:103D70000148FDF705BE00004C0800200148FDF792
:103D8000FFBD00008C080020094A10B5074BC2E9AE
:103D900000310021C2E9021010461161FDF769FCF3
:103DA000BDE810400248FDF79DBC00000004004043
:103DB0008C0800202DE9F0470268264C264D274E3E
:103DC000274F284B4FF0804AA04209D0504507D0DA
:103DD000A84205D0B04203D0B84201D0984204D1E5
:103DE00022F0700C4A6842EA0C02DFF87CC0DFF86F
:103DF0007C80DFF87C90A0420FD050450DD0A842C7
:103E00000BD0B04209D0B84207D0984205D06045E7
:103E100003D0404501D0484503D122F44075CA681B
:103E20002A434D6922F080022A4302608A68C262F6
:103E30000A688262A04207D0984205D0604503D04C
:103E4000404501D0484501D1096901630121416123
:103E5000BDE8F087002C014000040040000800404D
:103E6000000C00400034014000400140004401408B
:103E70000048014010B501F01F010123046A8B4086
:103E80009C430462036A8A401343036210BD00002E
:103E900070B5046A24F0010404628469056A144E52
:103EA000B04211D0B0F1804F0ED0124EB0420BD0C4
:103EB000114EB04208D0114EB04205D0104EB04263
:103EC00002D0104EB04203D124F00304144301E0A9
:103ED00044F001041A0724F0F00444EA126225F0C9
:103EE0000A0301F00A0119438261016270BD0000FA
:103EF000002C01400004004000080040000C00407D
:103F0000003401400040014030B5046A24F0100440
:103F100004628569046A25F4407545EA022222F4A8
:103F200070454FF6FF7202EA033224F0A0032A43E1
:103F3000A02404EA011119438261016230BD90F8A6
:103F40002410C90706D001684A68836A22F4003247
:103F50001A434A6090F82410890706D501684A6818
:103F6000C36A22F480321A434A6090F82410490749
:103F700006D501684A68036B22F480221A434A601E
:103F800090F82410090706D501684A68436B22F4AB
:103F900000421A434A6090F82410C90606D5016809
:103FA0008A68836B22F480521A438A6090F8241046
:103FB000890606D501688A68C36B22F400521A4349
:103FC0008A6090F82410490611D501684A68036C8C
:103FD00022F480121A434A60016CB1F5801F06D1A9
:103FE00001684A68436C22F4C0021A434A6090F8A0
:103FF0002410090606D501684A68806C22F4002264
:1040000002434A607047F8B5002504464567FCF74F
:10401000E7FD0746206800686FF07E46000708D578
:104020003B4600224FF400112046009600F092F922
:1040300060B92068006840070AD53B4600224FF46B
:1040400080012046009600F085F908B10320F8BDF4
:10405000202084F8710084F8720084F870500020E9
:10406000F8BD10B5806A0021A0F85A10A0F85210CF
:10407000FDF764FD10BD01680A6822F490720A60C1
:1040800001688A6822F001028A60202180F872109B
:1040900000210166704700002DE9F04704460068E2
:1040A0002369A168D4F81CC0194363691025002650
:1040B00043EA0C0319439B4A03683746DFF868C29A
:1040C00003EA0C030B43036020684168E36821F4B2
:1040D0004051194341602168A069914201D0236A8F
:1040E00018438B6823F4306303438B608F4B216844
:1040F0008F4899420DD1D0F8880010F0030006D007
:1041000001285AD0022856D0032859D157E001255A
:1041100056E0884B99420BD1D0F8880010F00C0083
:1041200047D0042849D0082845D00C2848D146E07B
:10413000814B99420BD1D0F8880010F0300038D074
:1041400010283AD0202836D0302839D137E07B4BA0
:1041500099420BD1D0F8880010F0C00029D0402837
:104160002BD0802827D0C0282AD128E0744B994230
:104170000ED1D0F8880010F440701AD0B0F5807FCE
:104180001BD0B0F5007F16D0B0F5407F18D116E0F7
:10419000914215D1D0F8880010F4406009D0B0F5F4
:1041A000806F0AD0B0F5006F05D0B0F5406F07D131
:1041B00005E0002504E0022502E0042500E00825D2
:1041C000604B4FF000084FF40040914244D135B1AC
:1041D000022D07D0042D07D0082D10D107E0FCF7E1
:1041E00041FE03E0184602E0FCF760FE98B3626807
:1041F00002EB4201814202D8B0EB023F01D9012714
:1042000089E065B1022D0DD0042D13D0082D1BD0EF
:1042100001274D49A6F5407088427AD9EFE7FCF7AF
:1042200021FE09E05008494B11E00023FCF725F876
:104230000646EEE7FCF73AFE6268010E05025008FA
:10424000281841EB0801F0E750084FF40003C018AC
:1042500048F10001E9E75EE0E1694FF6EF7981425C
:104260002ED1092D1DD2DFE805F00508121C151C02
:104270001C1C1800FCF7F6FD01E0FCF705FE4100F0
:10428000606801EB5001B1FBF0F086B20AE0304902
:104290006068F6E7FCF70AFEF1E74FF480316068EA
:1042A000EFE70127A6F110004845A8D84FF6F071B6
:1042B00006EA0100C6F3420108432168C8602AE00B
:1042C000092D21D2DFE805F0050812201620202054
:1042D0001A00FCF7C7FD01E0FCF7D6FD0146606857
:1042E00001EB5001B1FBF0F086B20EE0606803EB29
:1042F0005001F7E7FCF7DAFDF0E70AE0616800EB50
:104300005100B0FBF1F0EFE70127A6F1100048459E
:1043100084D82068C660C4F860803846C4F86480D9
:10432000BDE8F08700800040F369FFEF00380140EE
:10433000001002400044004000480040004C004093
:10434000005000400024F400FFFC0F00000024F4A3
:104350000048E8012DE9F0411E461746884604460C
:10436000069D1CE0681C1AD025B1FCF739FC801BA7
:10437000A84214D92068016821F4D0710160206836
:10438000816821F001018160202084F8710084F8A7
:104390007200002084F870000320BDE8F0812068DE
:1043A000C16938EA010004D00020B842DAD0002008
:1043B000F3E70120F9E7000038B518480068C06944
:1043C000C043800622D44FF47A7301226946134811
:1043D000FDF7C0FC124A1088010417D441049DF86F
:1043E00000104FF0000304D50A290ED140F400401C
:1043F00012E00D290ED0C0F30D04084D401CC83D3D
:1044000080B229551080C72800D913800348FDF7D2
:1044100097FB38BD40F480401080F7E7F0020020A1
:104420000C000020FEE7000070B50D467E2101EA79
:104430004004094E002220213046FCF7CBFB2046E9
:10444000FFF7CAFA2846FFF7C7FA3046BDE87040C2
:1044500001222021FCF7BEBB000C00487047000081
:1044600010B504460420FDF7E1F80148046010BDD2
:104470000800002070B5054600244FF47A7603E06A
:10448000304600F005F8641CAC42F9D370BD000062
:1044900070B54FF0E02500216C69094AAB691268DC
:1044A0005043AA699A42FCD002D2A3EB020302E075
:1044B000A4EB02063344194413468142F1D370BD84
:1044C0000800002004490A685206FCD5024AC1B21D
:1044D0000C321180704700001C44004010B52021B0
:1044E000002000F07DFB00F01FF80020FDF780FEAB
:1044F0000B480188090402D50021018010BD1E204F
:10450000641C94FBF0F100FB114020B94FF40071E2
:104510000448FCF75BFBBDE810400A20FFF7AABF88
:104520000C000020001000482DE9FC413D496220AC
:1045300008706421002000F053FB2021002000F0CF
:104540004FFB39A5284600F061FB102400212346CB
:10455000F0220846CDE90045FEF799F94FF47A7646
:104560003046FFF787FF37A5284600F04FFB1023A2
:10457000F022C8210020CDE90045FEF788F9304639
:10458000FFF778FF33A5284600F040FB1023F02208
:10459000B4210020CDE90045FEF779F93046FFF758
:1045A00069FF2FA5284600F031FB1023F022A0213F
:1045B0000020CDE90045FEF76AF941F28837384618
:1045C000FFF758FF2FA5284600F020FB1023F0220C
:1045D0008C210020CDE90045FEF759F93846FFF758
:1045E00049FF2CA5284600F011FB1023F02278216A
:1045F0000020CDE90045FEF74AF93846FFF73AFFBB
:104600002FA5284600F002FB1023F0226421002091
:10461000CDE90045FEF73BF93046BDE8FC41FFF728
:1046200029BF00002802002041542B554152543D1F
:104630003131353230302C382C312C302C300D0AC1
:104640000000000041542B43574D4F44453D310D70
:104650000A00000041542B5253540D0A0000000080
:1046600041542B43574A41503D2261736466676849
:104670003637222C223132333435363738220D0A80
:104680000000000041542B4349504D55583D300D1A
:104690000A00000041542B43495053544152543DA9
:1046A00022544350222C223139322E3136382E34C6
:1046B000332E3938222C31323334350D0A000000C4
:1046C00041542B4349504D4F44453D300D0A0000A5
:1046D0002DED048B86B00020059004900390834656
:1046E0000290FCF78BFAFFF7CBFA5020FFF7B8FEE9
:1046F0004FF4E13000F0DAFAFEF720F9FDF714FF8D
:10470000FDF742FDFCF7A8F8FEF79AFEFFF7E6FE7C
:104710004FF6FF773846FDF749FE1025C7A0CDE9D3
:1047200000502B46F02264211E20FEF7B0F84FF413
:104730007A70FFF79FFEDFF818834FF47841A8F8EE
:10474000001017E0FDF732FEC2A0CDE900501023A3
:10475000C822AA211E20FEF79AF8C820FFF78AFE79
:10476000BA23EF22AA211E200097FDF74BFEC82096
:10477000FFF780FEFBF78CFF00283846E2D1FDF7FB
:1047800015FE1826B6A0CDE900603346F02264215C
:104790000020FEF77CF8FEF775F9B0B1B2A0CDE9C4
:1047A00000501023F022C8210020FEF770F8C82026
:1047B000FFF760FEC822F023114600200097FDF7A6
:1047C00021FEC820FFF756FEE5E73846FDF7EEFD6F
:1047D000ABA0CDE900601823F02278210020FEF77D
:1047E00056F8F02100220846FEF7DBFA0598FEF79E
:1047F00047FA0398FEF72AF90298FEF700F958469F
:10480000FEF735F90498FEF787FA00224021A24806
:10481000FCF7E0F941F63F7142F20F70FFF7B4FA8E
:1048200027214FF6FE70FFF785FA3846FDF7BEFDEB
:104830004FF0280AB1468AA1CDE900A11823F02241
:1048400014210020FEF723F894A0CDE900904E46F5
:104850001823F02232210020FEF719F892A0CDE9AA
:1048600000601823F02250210020FEF710F891A0DC
:10487000CDE900601823F0226E210020FEF707F832
:104880000120FDF7B5FC042843D002285BD00128A5
:10489000D1D1FEF753F8FDF747FEFDF775FCFBF7A6
:1048A000DBFFF02100220846FEF77BFA0598FEF7B1
:1048B000E7F90398FEF7CAF80298FEF7A0F8584601
:1048C000FEF7D5F80498FEF727FA00224021724837
:1048D000FCF780F941F63F7142F20F70FFF754FA8E
:1048E00027214FF6FE70FFF725FA0020FDF75EFD49
:1048F000734EFEF7F9FA641C0F2C04D300248021B8
:104900003046FCF763F90120FDF772FC0328F0D173
:1049100015E03846FDF74AFD6AA0CDE9006018238E
:10492000F02282210020FDF7B2FFFEF789FD012071
:10493000FDF75EFC0646FEF721FD032EF7D1384653
:10494000FDF734FD77E73846FDF730FD5FA0CDE990
:1049500000601823F02264210020FDF798FF1F213A
:10496000A8F800105BA0CDE900501023C822BE219A
:104970001E20FDF78CFF5AA0CDE900501023C8225D
:10498000D2211E20FDF783FFB2EE049A0A26FBF720
:10499000FDFEB0EE408AFBF7C1FEB5EEC08AF0EE38
:1049A000408AF1EE10FA4FF0100307D22D22BE21FB
:1049B0004620FDF793FEB1EE488A04E02022BE2196
:1049C0004620FDF78BFEBCEEC80A0223BE2110EE86
:1049D000102A4E200095FDF722FF28EE090A012338
:1049E0000095BCEEC00A10EE100AB0FBF6F106FB13
:1049F0001102BE216620FDF712FFBCEEE80A022379
:104A0000D22110EE102A4E200095FDF708FF28EE67
:104A1000890A01230095BCEEC00A10EE100AB0FB13
:104A2000F6F106FB1102D2216620FDF7F8FE012007
:104A3000FDF7DEFB0328AAD181E70000574946496C
:104A40005F494E49545F535543434553530000005B
:104A5000140000204148543130204572726F7200BA
:104A600063686F6F736500004F56373732355F4F9D
:104A70005637363730204572726F722121000000A0
:104A80004F563737323520496E6974204F4B2020FE
:104A90002020202020000000000800487266696481
:104AA0003A776B5F7570000077656E64753A6B6579
:104AB0007931000070686F746F3A6B65793000006F
:104AC00000100048726669640000000077656E643B
:104AD0007500000054656D703A2020202E204300A0
:104AE00048756D693A2020202E202552480000008C
:104AF00030B504460748084D002150F824008200D4
:104B000005EB8400006900F07BF801202919087684
:104B100030BD0000F03801081C0000202DE9F041F4
:104B20001E4E0546002470190F46007E10B93168EC
:104B3000284688474FF0FF326FB3194B53F82510C2
:104B4000B7FBF1F0B7FBF1FC01FB1C7101B1401C9C
:104B50001349083951F82510491E1CD406EB850667
:104B6000376957F821C0BCF1000F04D000248442FB
:104B70000FD1002206E0641CF9E734698F18521C3B
:104B800044F827008242F8D353F825004843BDE893
:104B9000F081491EE5D51046F9E700001C00002011
:104BA000F838010810B50C4B0C4C002253F820309B
:104BB000114604EB800005E0046954F8214004B17B
:104BC000521C491C8B42F7D84FF47A704243B2FB17
:104BD000F3F080B210BD0000F03801081C00002086
:104BE00010B50446FFF79AFF411C05D0034901EBBD
:104BF00084018968084410BD002010BD1C000020FD
:104C000001E000F8011B521EFBD27047002200E0B9
:104C1000521C835C002BFBD1014601A0FBF7A4BB17
:104C200025730D0A000000001CB542F21071B0FBA4
:104C3000F1F230328DF80020B0FBF1F201FB1202EC
:104C40004FF47A71B2FBF1F230328DF80120B0FBF3
:104C5000F1F201FB12026421B2FBF1F230328DF865
:104C60000220B0FBF1F201FB12020A21B2FBF1F2C9
:104C700030328DF80320B0FBF1F201FB120030302E
:104C80008DF80400052205A12046FBF779FB20469C
:104C9000FFF7BCFF6846FFF7B9FF1CBD41542B432B
:104CA000495053454E443D25640D0A0010B50F4C44
:104CB0000D49C4E900100020A060E0602061A061FF
:104CC0000C2060612046FCF7DDFF2068016841F0A0
:104CD000200101602620FBF7BAFF0322BDE8104047
:104CE00011462620FBF7BEBF00440040F002002022
:104CF00021F00042A2F16052B2F5801F01F00043A2
:104D000028BFD2F17F6C0BD95FEA001C43EAC202D4
:104D100042EB507018BF704728BF20F00100704769
:104D2000B2F5801FBCBF184670474FEA410C1CF516
:104D3000001F02D2084600F0B6BA70B500F070F954
:104D400000000089FFF7F6BF4FF00040A0F580009B
:104D50007047000010B591EA030F48BF83F000438D
:104D600000F1BA81841A71EB030C05D2121943EBDE
:104D70000C03001B61EB0C01DFF824E14FEA115436
:104D8000A4EB135C1EEA430F18BF9EEA445F73D086
:104D900023EA0E03DCF1200E21EA045143F48013D0
:104DA00032D322FA0CFE10EB0E0023FA0CFE41EB7C
:104DB0000E01CCF1200E03FA0EFE10EB0E0051F1A5
:104DC0000001B1F5801FCCF1200E32D201EB04516D
:104DD00012FA0EF2BDE8104058BF7047401C38BFB1
:104DE0005FEA420218BF7047002814BF20F001009C
:104DF00041F100014FEA410313F5001F38BF70472E
:104E0000A1F1C04100F05AB9012A43EB0302ACF111
:104E1000200CDCF11F0E32BF4FF0000E23FA0CF312
:104E200010EB030041EB0451B4EB115FD0D0A1EBC8
:104E3000045101F5801149085FEA300001EB04518B
:104E40000ED350F1000038BF12FA0EFE08D1BDE8B3
:104E50001040C9E7401C38BF5FEA4202CAD1C3E72D
:104E6000BDE810404FEA410313F5001F38BF7047FB
:104E7000A1F1C04100F022B99EEA445F08D011EAD6
:104E80005E0FBDE8104004BF01F0004100207047F4
:104E9000BDE8104070B500F0C3F800BF64FBBE3E33
:104EA0000000E0FFB0FA80F310FA03F10AD0C3F17A
:104EB0001D0303F580634FEA41504FEA035202EBB2
:104EC000D12170474FF0000070470000DFF848C163
:104ED00070B51CEA111E1EBF1CEA13159EEA0C0FCA
:104EE00095EA0C0F00F06F8081EA030423EA4C136B
:104EF0004EEAD47E21EA4C1141F4801143F4801330
:104F0000AE44A1FB024CA0FB0365AEF17F7E3619D7
:104F100055EB0C05A1FB034C4CF10003A0FB021C5C
:104F200016EB0C06654153F10003094218BF46F029
:104F3000010613F4007F0BD14FEA03314FEA05302D
:104F4000340341EA155140EA16506FF003020AE0BB
:104F50004FEAC3214FEAC520F40241EA555140EA25
:104F600056506FF0020202EB2E4201EB025585EA29
:104F7000CE710AD05FEA440C18BF24F0004450F10F
:104F8000000041F1000120EAD47040F2FE7C62454D
:104F900000D270BDA84214BF4FF080444FF040448F
:104FA000002E08BF0024BEF1806FA8BFA1F1C04150
:104FB000BDE8704080F282804FF0000001F1C041F6
:104FC00001F0004170479EEA0C0F0CEA131518BF60
:104FD00095EA0C0F06D04FF0000081EA030E0EF0A8
:104FE000004170BD00F01CF88900013E00F007B8D8
:104FF00000F009B84FEA430C5FEA5C5C08D081EA34
:10500000030100F05BB84FEA410C5FEA5C5CF6D14B
:105010004FF00000014970470000FF070000F87FD3
:105020000EF1020E2EF0030E5EF8046B364205D42C
:10503000012A43EB030515F5001F12D8012841EBA7
:10504000010C1CF5001F0CD80ED14FEAD17C15F5D0
:10505000001F0CEB4C0C0CF1020C08BF4CEBD37C8A
:1050600004E04FF0080C01E04FEAD37C0CEB4C0558
:1050700026FA05F606F00706B6F1040C06D20EEB8A
:10508000860CBDE870404CF0010C6047DFE80CF086
:10509000090B02024FF000414FF00000A1F5002182
:1050A00070BD19461046012851EB010418BFD4F514
:1050B000001484BF002001F0004170BD0808A0F575
:1050C00000114FEA3101704710B591EA030F48BF54
:1050D00083F000433FF546AE841A71EB030C07D210
:1050E00012198CF0004C43EB0C03001B61EB0C011C
:1050F000DFF8A4E14FEA1154A4EB135C1EEA430F5E
:1051000018BF9EEA445F00F0B08023EA6E0352426B
:1051100021EA0451C3EB6E0338BF5B1EDCF1200EA5
:1051200025D322FA0CFE10EB0E0043FA0CFE41EBE5
:105130000E01CCF1200E03FA0EFE10EB0E0051F121
:105140000001CCF1200E29D412FA0EF201EB045129
:10515000BDE8104058BF7047401C1CBFB2F1004F63
:10516000704700280CBF491C20F00100704712EB6B
:10517000020E43EB030218BF4FF0010E4EEA42024B
:10518000ACF1200CDCF11E0E54D943FA0CFE10EBEE
:105190000E0051F1FF31CCF11E0ED5D50EF1010EEE
:1051A00012FA0EFE404141EB010101EB445C5FEA63
:1051B0005C5C10D910EBDE7001EB045138BFBEF11E
:1051C000004FBDE8104018BF704700280CBF491CB5
:1051D00020F00100704730D24FEAD42C11F50011B5
:1051E00024F400641BD0B1FA81F20B3AA41AA41E75
:1051F000D2F12003914030FA03F31943904001EBC0
:10520000CC71002C01EB0451BDE81040A8BF7047E1
:1052100001F1C0414FF0000001F000417047B0FAC9
:1052200080F310FA03F100D110BDE41A173C4805D1
:10523000C90AE4E701EB045110BD491001EB045128
:10524000BDE810404FEA300002E04FF00001704727
:105250004A0008BF0042F8D0B2F5001F28BF7047CF
:1052600001F000414FF0000070479EEA445F07D014
:1052700011EA5E0FBDE8104004BF00210020704716
:10528000BDE8104070B5FFF7CBFE00BF40DFF63E33
:1052900083F00041104670470000E0FF4FF040707F
:1052A000E1EE100A7047FF2141EAD050C005704777
:1052B00000000000000000000102030406070809C6
:1052C000A0860100400D0300801A060000350C0086
:1052D00040420F0080841E0000093D0000127A0049
:1052E0000024F40000366E010048E801006CDC0286
:1052F00000000000010203040000000000000000A4
:1053000000000000000020202020200000200000DD
:10531000282850000000000000000000000050504D
:10532000F85050F850500000002070A8A0603028BD
:10533000A8702000000048A8B0A8743454480000A9
:1053400000002050506CA8A89468000040408000E5
:105350000000000000000000081010202020202085
:1053600010100800402020101010101020204000C5
:1053700000000020A87070A82000000000000010AD
:10538000107C101000000000000000000000000071
:10539000404080000000000000FC00000000000011
:1053A00000000000000000000040000000040808A9
:1053B0001010202040408000000070888888888875
:1053C0008870000000002060202020202070000055
:1053D000000070888810204080F80000000070886D
:1053E000083008088870000000001030305090F835
:1053F000103800000000F88080F0880888700000F5
:105400000000304880B0C88888700000000078082C
:1054100010102020202000000000708888708888EC
:10542000887000000000708888986808906000000C
:10543000000000002000000000200000000000002C
:105440000020000000202000000008102040402024
:105450001008000000000000FC00FC00000000003C
:105460000000402010080810204000000000708854
:1054700088102020002000000000384494B4B4B804
:1054800044380000000020203050507848CC000004
:105490000000F0484870484848F000000000788854
:1054A00080808080887000000000F04848484848AC
:1054B00048F000000000F8485070504048F80000E4
:1054C0000000F8485070504040E0000000003848AC
:1054D00080809C88483000000000CC4848784848CC
:1054E00048CC00000000F8202020202020F80000F8
:1054F00000007C1010101010101090E00000EC481C
:105500005060504848EC00000000E04040404040FF
:1055100044FC00000000DCD8D8D8A8A8A8AC000043
:105520000000DC486868585848E8000000007088AF
:1055300088888888887000000000F04848704040E3
:1055400040E0000000007088888888E898701800A3
:105550000000F0484870504848EC0000000078888F
:105560008060100888F000000000F8A820202020AB
:10557000207000000000CC484848484848300000EF
:105580000000CC4848505030202000000000A8A85F
:10559000A8A87050505000000000D8505020205053
:1055A00050D800000000D85050502020207000003B
:1055B0000000F8901020204048F8000038202020FB
:1055C00020202020202038000040402020201010E3
:1055D000100808007010101010101010101070003B
:1055E000205000000000000000000000000000004B
:1055F00000000000000000FC40200000000000004F
:10560000000000000000000000304838483C000066
:1056100000C0404040704848487000000000000052
:10562000003848404830000000180808083848484A
:10563000483C00000000000000304878403800007E
:10564000001824202078202020780000000000008E
:10565000003C48304038443800C040404070484822
:1056600048EC000000202000006020202070000096
:105670000010100000301010101010E000C040406A
:105680004058506050C8000000E02020202020201A
:1056900020F800000000000000F0A8A8A8A8000062
:1056A0000000000000F0484848EC00000000000046
:1056B00000304848483000000000000000F0484832
:1056C000487040E000000000003848484838081C96
:1056D0000000000000D8604040E000000000000032
:1056E000007840300878000000000020207820205A
:1056F000203800000000000000D84848483C000066
:105700000000000000D850502020000000000000E1
:1057100000A8A870505000000000000000D85020E1
:1057200050D800000000000000CC4848301020C0D5
:1057300000000000007810202078000018101010E1
:105740001030101010101800101010101010101041
:105750001010101060202020201020202020600039
:105760006890000000000000000000000000000041
:105770000000000000000000000000000000001019
:10578000101010101010000010100000001224243F
:1057900048000000000000000000000000000012AF
:1057A00012127E2424247E24242400000000083CBD
:1057B0004A4A48380C0A0A4A4A3C08080000004491
:1057C000A4A8A8B0541A2A2A4A44000000000030B5
:1057D000484848506EA494988976000000602020C4
:1057E000400000000000000000000000000204086B
:1057F00008101010101010080804020000402010BB
:1058000010080808080808101020400000000000D8
:105810001010D63838D6101000000000000000002C
:10582000000808087F0808080000000000000000C9
:105830000000000000000000602020400000000088
:10584000000000007E0000000000000000000000DA
:105850000000000000000000606000000000020482
:105860000404080810101020204040000000001818
:1058700024424242424242422418000000000008F2
:105880003808080808080808083E00000000003C26
:105890004242420204081020427E00000000003C08
:1058A0004242020418040242423C0000000000048C
:1058B0000C0C142424447F04041F00000000007E0C
:1058C0004040407844020242443800000000001882
:1058D0002440405C62424242221C00000000007EE4
:1058E0004204040808101010101000000000003CD2
:1058F0004242422418244242423C00000000003848
:1059000044424242463A02022418000000000000CD
:105910000000181800000000181800000000000027
:105920000000001000000000001010100000000235
:1059300004081020402010080402000000000000AD
:1059400000007E00007E000000000000000000401B
:105950002010080402040810204000000000003C51
:1059600042426204080808001818000000000038CD
:10597000445AAAAAAAAAAA5C423C0000000000104D
:1059800010182828243C444242E70000000000F898
:10599000444444784442424244F800000000003E3F
:1059A000424280808080804244380000000000F83D
:1059B000444242424242424244F80000000000FC9D
:1059C000424848784848404242FC0000000000FC41
:1059D000424848784848404040E000000000003C11
:1059E00044448080808E844444380000000000E7F6
:1059F000424242427E42424242E700000000007CB6
:105A00001010101010101010107C00000000003E4C
:105A10000808080808080808080888F0000000EED0
:105A2000444850705048484444EE0000000000E0F4
:105A3000404040404040404042FE0000000000EE38
:105A40006C6C6C6C6C54545454D60000000000C74D
:105A5000626252524A4A4A4646E20000000000385A
:105A6000448282828282828244380000000000FCEC
:105A7000424242427C40404040E00000000000388A
:105A800044828282828282B24C380600000000FC8E
:105A90004242427C4848444442E300000000003E49
:105AA0004242402018040242427C0000000000FEF6
:105AB000921010101010101010380000000000E7B5
:105AC0004242424242424242423C0000000000E761
:105AD000424244242428281810100000000000D658
